{
  "address": "0x6592F769efD13391eEc286113F05C79835a39c14",
  "abi": [
    {
      "inputs": [
        {
          "internalType": "address",
          "name": "reciever",
          "type": "address"
        },
        {
          "internalType": "uint256",
          "name": "balance",
          "type": "uint256"
        }
      ],
      "name": "sendMoney",
      "outputs": [],
      "stateMutability": "payable",
      "type": "function"
    }
  ],
  "transactionHash": "0x5683e28fe3d8ebba3839a8c60c07959d84c02bc65fef94b01e90ef5e26ddcfcf",
  "args": [],
  "numDeployments": 1,
  "solcInputHash": "140c6ba54c40da9aac741a4f9f6cf16d",
  "bytecode": "0x608060405234801561001057600080fd5b50610199806100206000396000f3fe60806040526004361061001e5760003560e01c8063ee4ae2c914610023575b600080fd5b61003d60048036038101906100389190610123565b61003f565b005b8173ffffffffffffffffffffffffffffffffffffffff166108fc829081150290604051600060405180830381858888f19350505050158015610085573d6000803e3d6000fd5b505050565b600080fd5b600073ffffffffffffffffffffffffffffffffffffffff82169050919050565b60006100ba8261008f565b9050919050565b6100ca816100af565b81146100d557600080fd5b50565b6000813590506100e7816100c1565b92915050565b6000819050919050565b610100816100ed565b811461010b57600080fd5b50565b60008135905061011d816100f7565b92915050565b6000806040838503121561013a5761013961008a565b5b6000610148858286016100d8565b92505060206101598582860161010e565b915050925092905056fea2646970667358221220640389c223db3f7898f46b9e620594133ea68cc8fd715349a9856d56bff595d064736f6c63430008110033",
  "devdoc": {
    "kind": "dev",
    "methods": {},
    "version": 1
  },
  "userdoc": {
    "kind": "user",
    "methods": {},
    "version": 1
  },
  "storageLayout": {
    "storage": [],
    "types": null
  }
}